{
  "contractName": "Donor",
  "abi": [
    {
      "inputs": [
        {
          "internalType": "address payable",
          "name": "_pCreatorToken",
          "type": "address"
        }
      ],
      "stateMutability": "nonpayable",
      "type": "constructor"
    },
    {
      "anonymous": false,
      "inputs": [
        {
          "indexed": false,
          "internalType": "address",
          "name": "donor",
          "type": "address"
        },
        {
          "indexed": false,
          "internalType": "uint256",
          "name": "amount",
          "type": "uint256"
        },
        {
          "indexed": false,
          "internalType": "string",
          "name": "message",
          "type": "string"
        },
        {
          "indexed": false,
          "internalType": "address",
          "name": "projectAdmin",
          "type": "address"
        },
        {
          "indexed": false,
          "internalType": "uint256",
          "name": "index",
          "type": "uint256"
        }
      ],
      "name": "DonatedMoney",
      "type": "event"
    },
    {
      "inputs": [],
      "name": "donor",
      "outputs": [
        {
          "internalType": "address payable",
          "name": "",
          "type": "address"
        }
      ],
      "stateMutability": "view",
      "type": "function",
      "constant": true
    },
    {
      "inputs": [],
      "name": "temp",
      "outputs": [
        {
          "internalType": "address",
          "name": "",
          "type": "address"
        }
      ],
      "stateMutability": "view",
      "type": "function",
      "constant": true
    },
    {
      "inputs": [
        {
          "internalType": "uint256",
          "name": "donation",
          "type": "uint256"
        },
        {
          "internalType": "address",
          "name": "admin",
          "type": "address"
        },
        {
          "internalType": "uint256",
          "name": "index",
          "type": "uint256"
        },
        {
          "internalType": "string",
          "name": "message",
          "type": "string"
        }
      ],
      "name": "donate",
      "outputs": [],
      "stateMutability": "payable",
      "type": "function",
      "payable": true
    }
  ],
  "bytecode": "0x608060405234801561001057600080fd5b5060405161047e38038061047e8339818101604052602081101561003357600080fd5b5051600280546001600160a01b039283166001600160a01b0319918216179182905560018054821692909316918217909255600380549092161790556104008061007e6000396000f3fe6080604052600436106100345760003560e01c806325223bd414610039578063673402e51461006a5780637f15463e1461007f575b600080fd5b34801561004557600080fd5b5061004e610143565b604080516001600160a01b039092168252519081900360200190f35b34801561007657600080fd5b5061004e610152565b6101416004803603608081101561009557600080fd5b8135916001600160a01b0360208201351691604082013591908101906080810160608201356401000000008111156100cc57600080fd5b8201836020820111156100de57600080fd5b8035906020019184600183028401116401000000008311171561010057600080fd5b91908080601f016020809104026020016040519081016040528093929190818152602001838380828437600092019190915250929550610161945050505050565b005b6000546001600160a01b031681565b6003546001600160a01b031681565b600080546001600160a01b03191633178082556001600160a01b0390811690851614156101cd576040805162461bcd60e51b815260206004820152601560248201527421b0b73737ba103237b730ba32903a379039b2b63360591b604482015290519081900360640190fd5b60015460408051631b327aab60e11b8152600481018890526001600160a01b0387811660248301526044820187905291519190921691633664f556916064808301926020929190829003018186803b15801561022857600080fd5b505afa15801561023c573d6000803e3d6000fd5b505050506040513d602081101561025257600080fd5b505161025d576103c3565b60015460408051635ed3fc6960e01b8152600481018890526001600160a01b0387811660248301526044820187905291519190921691635ed3fc6991606480830192600092919082900301818387803b1580156102b957600080fd5b505af11580156102cd573d6000803e3d6000fd5b505050507f88166ead14c79d6e5f723efb283120e51edf560335cee7703cb92001170bf3926000809054906101000a90046001600160a01b03168684878760405180866001600160a01b03166001600160a01b0316815260200185815260200180602001846001600160a01b03166001600160a01b03168152602001838152602001828103825285818151815260200191508051906020019080838360005b8381101561038457818101518382015260200161036c565b50505050905090810190601f1680156103b15780820380516001836020036101000a031916815260200191505b50965050505050505060405180910390a15b505050505056fea2646970667358221220c60a801f344244e904e75b4a287654140a26c8ef4936d33961e7f59b54f902bf64736f6c63430006060033",
  "immutableReferences": {},
  "source": "pragma solidity >=0.4.22 <=0.7.0;\r\nimport './ReputationToken.sol';\r\nimport './ProjectCreator.sol';\r\ncontract Donor{\r\n    \r\n    address payable public donor;\r\n    ProjectCreator p;\r\n    address payable projectCreatorAdd;\r\n    address public temp;\r\n    constructor(address payable _pCreatorToken) public{\r\n        projectCreatorAdd = _pCreatorToken;\r\n        p = ProjectCreator(projectCreatorAdd);\r\n        temp = projectCreatorAdd;\r\n    }\r\n    event DonatedMoney(address donor, uint amount,string message,address projectAdmin, uint index);\r\n    function donate(uint donation, address admin, uint index,string memory message)public payable{\r\n        donor = msg.sender;\r\n        uint a;\r\n        require(donor != admin, \"Cannot donate to self\");\r\n        //Call function in ProjectCreator to update values\r\n        if(p.checkLimit(donation,admin,index) == false){\r\n            //Message saying not possible to donate since limit has been crossed/ Invalid amount\r\n        }else{\r\n            //projectCreatorAdd.transfer(donation);\r\n            p.donatedAmount(donation,admin,index);\r\n            //Emit event after this\r\n            emit DonatedMoney(donor,donation,message,admin,index);\r\n            //Access transaction using web3.js\r\n            //Give a reward badge for donating money\r\n        }\r\n    }\r\n    \r\n}",
  "sourcePath": "C:/Users/Pitch/Desktop/NGO/Emurgo NGO 10 AM 18 Oct/contracts/Donor.sol",
  "compiler": {
    "name": "solc",
    "version": "0.6.6+commit.6c089d02.Emscripten.clang"
  },
  "schemaVersion": "3.3.0",
  "updatedAt": "2020-10-18T16:43:54.136Z",
  "networkType": "ethereum",
  "devdoc": {
    "methods": {}
  },
  "userdoc": {
    "methods": {}
  }
}