{
  "contractName": "Moderator",
  "abi": [
    {
      "inputs": [
        {
          "internalType": "address",
          "name": "_modToken",
          "type": "address"
        },
        {
          "internalType": "address",
          "name": "_repToken",
          "type": "address"
        },
        {
          "internalType": "address payable",
          "name": "_pCreator",
          "type": "address"
        }
      ],
      "stateMutability": "nonpayable",
      "type": "constructor"
    },
    {
      "anonymous": false,
      "inputs": [
        {
          "indexed": false,
          "internalType": "address",
          "name": "receiver",
          "type": "address"
        }
      ],
      "name": "transferModeratorToken",
      "type": "event"
    },
    {
      "anonymous": false,
      "inputs": [
        {
          "indexed": false,
          "internalType": "address",
          "name": "receiver",
          "type": "address"
        },
        {
          "indexed": false,
          "internalType": "address",
          "name": "moderator",
          "type": "address"
        }
      ],
      "name": "transferReputation",
      "type": "event"
    },
    {
      "inputs": [
        {
          "internalType": "string",
          "name": "purpose",
          "type": "string"
        },
        {
          "internalType": "uint256",
          "name": "value",
          "type": "uint256"
        },
        {
          "internalType": "string",
          "name": "proofLink",
          "type": "string"
        },
        {
          "internalType": "address",
          "name": "admin",
          "type": "address"
        },
        {
          "internalType": "uint256",
          "name": "index",
          "type": "uint256"
        },
        {
          "internalType": "bool",
          "name": "verified",
          "type": "bool"
        },
        {
          "internalType": "uint256",
          "name": "transactionIndex",
          "type": "uint256"
        }
      ],
      "name": "generateRandomTransactionFromEmit",
      "outputs": [],
      "stateMutability": "nonpayable",
      "type": "function"
    },
    {
      "inputs": [],
      "name": "validateTransaction",
      "outputs": [],
      "stateMutability": "nonpayable",
      "type": "function"
    },
    {
      "inputs": [],
      "name": "rejectTransaction",
      "outputs": [],
      "stateMutability": "nonpayable",
      "type": "function"
    },
    {
      "inputs": [],
      "name": "viewModeratorTokenBalance",
      "outputs": [
        {
          "internalType": "uint256",
          "name": "",
          "type": "uint256"
        }
      ],
      "stateMutability": "view",
      "type": "function",
      "constant": true
    }
  ],
  "bytecode": "0x608060405234801561001057600080fd5b506040516109633803806109638339818101604052606081101561003357600080fd5b5080516020820151604090920151600080546001600160a01b039384166001600160a01b03199182161790915560018054948416948216949094179093556002805492909116919092161790556108d48061008f6000396000f3fe608060405234801561001057600080fd5b506004361061004c5760003560e01c8063198ba225146100515780633c1c23871461006b5780635e280e4e146100755780639a2943a41461007d575b600080fd5b6100596101ce565b60408051918252519081900360200190f35b61007361024c565b005b6100736103cd565b610073600480360360e081101561009357600080fd5b8101906020810181356401000000008111156100ae57600080fd5b8201836020820111156100c057600080fd5b803590602001918460018302840111640100000000831117156100e257600080fd5b91908080601f0160208091040260200160405190810160405280939291908181526020018383808284376000920191909152509295843595909490935060408101925060200135905064010000000081111561013d57600080fd5b82018360208201111561014f57600080fd5b8035906020019184600183028401116401000000008311171561017157600080fd5b91908080601f016020809104026020016040519081016040528093929190818152602001838380828437600092019190915250929550506001600160a01b0383351693505050602081013590604081013515159060600135610711565b60008054604080516370a0823160e01b815233600482015290516001600160a01b03909216916370a0823191602480820192602092909190829003018186803b15801561021a57600080fd5b505afa15801561022e573d6000803e3d6000fd5b505050506040513d602081101561024457600080fd5b505190505b90565b600a5460ff16151560011461029f576040805162461bcd60e51b81526020600482015260146024820152734e6f7420696e697469616c69736564207965742160601b604482015290519081900360640190fd5b60005460408051634a5493ff60e11b815290516001600160a01b03909216916323b872dd9183916394a927fe91600480820192602092909190829003018186803b1580156102ec57600080fd5b505afa158015610300573d6000803e3d6000fd5b505050506040513d602081101561031657600080fd5b5051604080516001600160e01b031960e085901b1681526001600160a01b039092166004830152336024830152600160448301525160648083019260209291908290030181600087803b15801561036c57600080fd5b505af1158015610380573d6000803e3d6000fd5b505050506040513d602081101561039657600080fd5b50506040805133815290517f6897df93aed0e5c518bf1b21cf2be7d92535d55271760656df939424d7ad503f9181900360200190a1565b600a5460ff161515600114610420576040805162461bcd60e51b81526020600482015260146024820152734e6f7420696e697469616c69736564207965742160601b604482015290519081900360640190fd5b6002546006546007546009546040805163413635fd60e11b81526001600160a01b0394851660048201526024810193909352604483019190915251919092169163826c6bfa91606480830192600092919082900301818387803b15801561048657600080fd5b505af115801561049a573d6000803e3d6000fd5b505060015460408051634a5493ff60e11b815290516001600160a01b0390921693506323b872dd925083916394a927fe91600480820192602092909190829003018186803b1580156104eb57600080fd5b505afa1580156104ff573d6000803e3d6000fd5b505050506040513d602081101561051557600080fd5b5051600654604080516001600160e01b031960e086901b1681526001600160a01b039384166004820152929091166024830152600160448301525160648083019260209291908290030181600087803b15801561057157600080fd5b505af1158015610585573d6000803e3d6000fd5b505050506040513d602081101561059b57600080fd5b505060005460408051634a5493ff60e11b815290516001600160a01b03909216916323b872dd9183916394a927fe91600480820192602092909190829003018186803b1580156105ea57600080fd5b505afa1580156105fe573d6000803e3d6000fd5b505050506040513d602081101561061457600080fd5b5051604080516001600160e01b031960e085901b1681526001600160a01b039092166004830152336024830152600160448301525160648083019260209291908290030181600087803b15801561066a57600080fd5b505af115801561067e573d6000803e3d6000fd5b505050506040513d602081101561069457600080fd5b5050600654604080516001600160a01b03909216825233602083015280517fe9063fe4f2368e5ed07ec2d03447219c5e77dda8242333b88f2b4e7c1796da019281900390910190a16040805133815290517f6897df93aed0e5c518bf1b21cf2be7d92535d55271760656df939424d7ad503f9181900360200190a1565b604080516101008101825288815260208082018990529181018790526001600160a01b03861660608201526080810185905283151560a082015260c08101839052600160e08201528851909160039161076f918391908c0190610806565b506020828101516001830155604083015180516107929260028501920190610806565b5060608201516003820180546001600160a01b039092166001600160a01b03199092169190911790556080820151600482015560a082015160058201805491151560ff1992831617905560c0830151600683015560e090920151600790910180549115159190921617905550505050505050565b828054600181600116156101000203166002900490600052602060002090601f016020900481019282601f1061084757805160ff1916838001178555610874565b82800160010185558215610874579182015b82811115610874578251825591602001919060010190610859565b50610880929150610884565b5090565b61024991905b80821115610880576000815560010161088a56fea264697066735822122008d04b211b3ce9864a639bdc43f4236c4aa8a0cf30d1cebb04857a5c279a36d864736f6c63430006060033",
  "immutableReferences": {},
  "source": "pragma solidity >=0.4.22 <0.7.0;\r\nimport './ReputationToken.sol';\r\nimport './ModeratorToken.sol';\r\nimport './ProjectCreator.sol';\r\ncontract Moderator{ \r\n    ModeratorToken mod;\r\n    ReputationToken rep;\r\n    ProjectCreator project;\r\n      struct Transaction{\r\n        string purpose;\r\n        uint value;\r\n        string proofLink;\r\n        address admin;\r\n        uint index;\r\n        bool verified;\r\n        uint transactionIndex;\r\n        bool initialised;\r\n    }\r\n    Transaction t;\r\n    constructor(address _modToken, address _repToken, address payable _pCreator) public{\r\n        \r\n        mod = ModeratorToken(_modToken);\r\n        rep = ReputationToken(_repToken);\r\n        project = ProjectCreator(_pCreator);\r\n        \r\n    }\r\n    // function generateRandomTransactionFromReturn() public{\r\n    //   (string memory purpose, uint value, string memory proofLink,address admin,uint index,bool verified,uint transactionIndex) = project.requestedRandomTransactionFromMod();\r\n    //   t = Transaction(purpose,value,proofLink,admin,index,verified,transactionIndex,true);\r\n    // }\r\n    \r\n     function generateRandomTransactionFromEmit(string memory purpose, uint value, string memory proofLink,address admin,uint index,bool verified,uint transactionIndex) public{\r\n        //Call this function after retrieveing it from the emit\r\n       t = Transaction(purpose,value,proofLink,admin,index,verified,transactionIndex,true);\r\n    }\r\n    \r\n    event transferReputation(address receiver, address moderator);\r\n    event transferModeratorToken(address receiver);\r\n    function validateTransaction() public{\r\n        require(t.initialised == true,\"Not initialised yet!\");\r\n        //Replace with transaction index\r\n        project.makeTransactionValid(t.admin,t.index,t.transactionIndex);\r\n        //Increase mod tokens and increase reputation tokens for the owner of project\r\n        rep.transferFrom(rep.returnOwner(),t.admin,1);\r\n        mod.transferFrom(mod.returnOwner(),msg.sender,1);\r\n        emit transferReputation(t.admin,msg.sender);\r\n        emit transferModeratorToken(msg.sender);\r\n    }\r\n    \r\n    function rejectTransaction() public{\r\n        require(t.initialised == true,\"Not initialised yet!\");\r\n        mod.transferFrom(mod.returnOwner(),msg.sender,1);\r\n        emit transferModeratorToken(msg.sender);\r\n    }\r\n    function viewModeratorTokenBalance()public view returns(uint){\r\n        return mod.balanceOf(msg.sender);\r\n    }\r\n    \r\n}",
  "sourcePath": "C:/Users/Pitch/Desktop/NGO/Emurgo NGO 10 AM 18 Oct/contracts/Moderator.sol",
  "compiler": {
    "name": "solc",
    "version": "0.6.6+commit.6c089d02.Emscripten.clang"
  },
  "schemaVersion": "3.3.0",
  "updatedAt": "2020-10-18T16:43:54.124Z",
  "networkType": "ethereum",
  "devdoc": {
    "methods": {}
  },
  "userdoc": {
    "methods": {}
  }
}