{
  "contractName": "ProjectCreator",
  "abi": [
    {
      "inputs": [
        {
          "internalType": "address",
          "name": "_repToken",
          "type": "address"
        }
      ],
      "stateMutability": "nonpayable",
      "type": "constructor"
    },
    {
      "anonymous": false,
      "inputs": [
        {
          "indexed": false,
          "internalType": "string[]",
          "name": "names",
          "type": "string[]"
        },
        {
          "indexed": false,
          "internalType": "string[]",
          "name": "desc",
          "type": "string[]"
        },
        {
          "indexed": false,
          "internalType": "uint256[]",
          "name": "limits",
          "type": "uint256[]"
        },
        {
          "indexed": false,
          "internalType": "address[]",
          "name": "owners",
          "type": "address[]"
        }
      ],
      "name": "ViewAllProjects",
      "type": "event"
    },
    {
      "anonymous": false,
      "inputs": [
        {
          "indexed": false,
          "internalType": "string[]",
          "name": "_purpose",
          "type": "string[]"
        },
        {
          "indexed": false,
          "internalType": "uint256[]",
          "name": "_value",
          "type": "uint256[]"
        },
        {
          "indexed": false,
          "internalType": "string[]",
          "name": "_proofLink",
          "type": "string[]"
        },
        {
          "indexed": false,
          "internalType": "address",
          "name": "_admin",
          "type": "address"
        },
        {
          "indexed": false,
          "internalType": "bool[]",
          "name": "_verified",
          "type": "bool[]"
        },
        {
          "indexed": false,
          "internalType": "uint256[]",
          "name": "_transactionIndex",
          "type": "uint256[]"
        }
      ],
      "name": "ViewAllTransactions",
      "type": "event"
    },
    {
      "anonymous": false,
      "inputs": [
        {
          "indexed": false,
          "internalType": "string",
          "name": "name",
          "type": "string"
        },
        {
          "indexed": false,
          "internalType": "string",
          "name": "desc",
          "type": "string"
        },
        {
          "indexed": false,
          "internalType": "uint256",
          "name": "value",
          "type": "uint256"
        },
        {
          "indexed": false,
          "internalType": "address",
          "name": "admin",
          "type": "address"
        }
      ],
      "name": "ViewProject",
      "type": "event"
    },
    {
      "anonymous": false,
      "inputs": [
        {
          "indexed": false,
          "internalType": "string",
          "name": "purpose",
          "type": "string"
        },
        {
          "indexed": false,
          "internalType": "uint256",
          "name": "value",
          "type": "uint256"
        },
        {
          "indexed": false,
          "internalType": "string",
          "name": "proofLink",
          "type": "string"
        },
        {
          "indexed": false,
          "internalType": "address",
          "name": "admin",
          "type": "address"
        },
        {
          "indexed": false,
          "internalType": "uint256",
          "name": "index",
          "type": "uint256"
        },
        {
          "indexed": false,
          "internalType": "bool",
          "name": "verified",
          "type": "bool"
        },
        {
          "indexed": false,
          "internalType": "uint256",
          "name": "transactionIndex",
          "type": "uint256"
        }
      ],
      "name": "generateRandomTransaction",
      "type": "event"
    },
    {
      "stateMutability": "nonpayable",
      "type": "fallback"
    },
    {
      "inputs": [],
      "name": "adminCount",
      "outputs": [
        {
          "internalType": "uint256",
          "name": "",
          "type": "uint256"
        }
      ],
      "stateMutability": "view",
      "type": "function",
      "constant": true
    },
    {
      "inputs": [
        {
          "internalType": "uint256",
          "name": "",
          "type": "uint256"
        }
      ],
      "name": "keyList",
      "outputs": [
        {
          "internalType": "address",
          "name": "",
          "type": "address"
        }
      ],
      "stateMutability": "view",
      "type": "function",
      "constant": true
    },
    {
      "inputs": [],
      "name": "pCount",
      "outputs": [
        {
          "internalType": "uint256",
          "name": "",
          "type": "uint256"
        }
      ],
      "stateMutability": "view",
      "type": "function",
      "constant": true
    },
    {
      "inputs": [
        {
          "internalType": "address",
          "name": "",
          "type": "address"
        }
      ],
      "name": "projectCount",
      "outputs": [
        {
          "internalType": "uint256",
          "name": "",
          "type": "uint256"
        }
      ],
      "stateMutability": "view",
      "type": "function",
      "constant": true
    },
    {
      "inputs": [
        {
          "internalType": "uint256",
          "name": "",
          "type": "uint256"
        }
      ],
      "name": "projectMap",
      "outputs": [
        {
          "internalType": "address",
          "name": "admin",
          "type": "address"
        },
        {
          "internalType": "uint256",
          "name": "adminIndex",
          "type": "uint256"
        }
      ],
      "stateMutability": "view",
      "type": "function",
      "constant": true
    },
    {
      "inputs": [
        {
          "internalType": "address",
          "name": "",
          "type": "address"
        },
        {
          "internalType": "uint256",
          "name": "",
          "type": "uint256"
        }
      ],
      "name": "projects",
      "outputs": [
        {
          "internalType": "string",
          "name": "name",
          "type": "string"
        },
        {
          "internalType": "string",
          "name": "description",
          "type": "string"
        },
        {
          "internalType": "uint256",
          "name": "limit",
          "type": "uint256"
        },
        {
          "internalType": "address",
          "name": "admin",
          "type": "address"
        },
        {
          "internalType": "uint256",
          "name": "donatedValue",
          "type": "uint256"
        },
        {
          "internalType": "uint256",
          "name": "balance",
          "type": "uint256"
        },
        {
          "internalType": "uint256",
          "name": "transactionSize",
          "type": "uint256"
        },
        {
          "internalType": "uint256",
          "name": "spentAmount",
          "type": "uint256"
        },
        {
          "internalType": "uint256",
          "name": "index",
          "type": "uint256"
        }
      ],
      "stateMutability": "view",
      "type": "function",
      "constant": true
    },
    {
      "inputs": [],
      "name": "reputationTokenBalance",
      "outputs": [
        {
          "internalType": "uint256",
          "name": "",
          "type": "uint256"
        }
      ],
      "stateMutability": "view",
      "type": "function",
      "constant": true
    },
    {
      "stateMutability": "payable",
      "type": "receive",
      "payable": true
    },
    {
      "inputs": [],
      "name": "showBalance",
      "outputs": [
        {
          "internalType": "uint256",
          "name": "",
          "type": "uint256"
        }
      ],
      "stateMutability": "nonpayable",
      "type": "function"
    },
    {
      "inputs": [
        {
          "internalType": "string",
          "name": "_name",
          "type": "string"
        },
        {
          "internalType": "string",
          "name": "_desc",
          "type": "string"
        },
        {
          "internalType": "uint256",
          "name": "_value",
          "type": "uint256"
        }
      ],
      "name": "createProject",
      "outputs": [],
      "stateMutability": "nonpayable",
      "type": "function"
    },
    {
      "inputs": [
        {
          "internalType": "address",
          "name": "owner",
          "type": "address"
        },
        {
          "internalType": "uint256",
          "name": "index",
          "type": "uint256"
        }
      ],
      "name": "viewProject",
      "outputs": [
        {
          "internalType": "string",
          "name": "name",
          "type": "string"
        },
        {
          "internalType": "string",
          "name": "desc",
          "type": "string"
        },
        {
          "internalType": "uint256",
          "name": "value",
          "type": "uint256"
        },
        {
          "internalType": "address",
          "name": "admin",
          "type": "address"
        },
        {
          "internalType": "uint256",
          "name": "donatedValue",
          "type": "uint256"
        },
        {
          "internalType": "uint256",
          "name": "balance",
          "type": "uint256"
        },
        {
          "internalType": "uint256",
          "name": "transactionSize",
          "type": "uint256"
        },
        {
          "internalType": "uint256",
          "name": "spentAmount",
          "type": "uint256"
        },
        {
          "internalType": "uint256",
          "name": "index1",
          "type": "uint256"
        }
      ],
      "stateMutability": "nonpayable",
      "type": "function"
    },
    {
      "inputs": [
        {
          "internalType": "address",
          "name": "admin",
          "type": "address"
        }
      ],
      "name": "returnProjectCountForCreator",
      "outputs": [
        {
          "internalType": "uint256",
          "name": "count",
          "type": "uint256"
        }
      ],
      "stateMutability": "view",
      "type": "function",
      "constant": true
    },
    {
      "inputs": [
        {
          "internalType": "address",
          "name": "admin",
          "type": "address"
        }
      ],
      "name": "viewProjects",
      "outputs": [
        {
          "internalType": "string[]",
          "name": "names",
          "type": "string[]"
        },
        {
          "internalType": "string[]",
          "name": "desc",
          "type": "string[]"
        },
        {
          "internalType": "uint256[]",
          "name": "limits",
          "type": "uint256[]"
        },
        {
          "internalType": "address[]",
          "name": "owners",
          "type": "address[]"
        }
      ],
      "stateMutability": "nonpayable",
      "type": "function"
    },
    {
      "inputs": [],
      "name": "viewAllProjectAdmins",
      "outputs": [
        {
          "internalType": "address[]",
          "name": "arrayOfProjectOwners",
          "type": "address[]"
        }
      ],
      "stateMutability": "view",
      "type": "function",
      "constant": true
    },
    {
      "inputs": [
        {
          "internalType": "string",
          "name": "link",
          "type": "string"
        },
        {
          "internalType": "address",
          "name": "admin",
          "type": "address"
        },
        {
          "internalType": "uint256",
          "name": "index",
          "type": "uint256"
        },
        {
          "internalType": "uint256",
          "name": "transactionIndex",
          "type": "uint256"
        }
      ],
      "name": "submitProof",
      "outputs": [],
      "stateMutability": "nonpayable",
      "type": "function"
    },
    {
      "inputs": [],
      "name": "requestedRandomTransactionFromMod",
      "outputs": [
        {
          "internalType": "string",
          "name": "purpose",
          "type": "string"
        },
        {
          "internalType": "uint256",
          "name": "value",
          "type": "uint256"
        },
        {
          "internalType": "string",
          "name": "proofLink",
          "type": "string"
        },
        {
          "internalType": "address",
          "name": "admin",
          "type": "address"
        },
        {
          "internalType": "uint256",
          "name": "index",
          "type": "uint256"
        },
        {
          "internalType": "bool",
          "name": "verified",
          "type": "bool"
        },
        {
          "internalType": "uint256",
          "name": "transactionIndex",
          "type": "uint256"
        }
      ],
      "stateMutability": "nonpayable",
      "type": "function"
    },
    {
      "inputs": [
        {
          "internalType": "uint256",
          "name": "amount",
          "type": "uint256"
        },
        {
          "internalType": "uint256",
          "name": "index",
          "type": "uint256"
        },
        {
          "internalType": "string",
          "name": "purpose",
          "type": "string"
        }
      ],
      "name": "withdraw",
      "outputs": [
        {
          "internalType": "address",
          "name": "admin1",
          "type": "address"
        }
      ],
      "stateMutability": "nonpayable",
      "type": "function"
    },
    {
      "inputs": [
        {
          "internalType": "uint256",
          "name": "donatedAmt",
          "type": "uint256"
        },
        {
          "internalType": "address",
          "name": "admin",
          "type": "address"
        },
        {
          "internalType": "uint256",
          "name": "index",
          "type": "uint256"
        }
      ],
      "name": "checkLimit",
      "outputs": [
        {
          "internalType": "bool",
          "name": "isLimitReached",
          "type": "bool"
        }
      ],
      "stateMutability": "view",
      "type": "function",
      "constant": true
    },
    {
      "inputs": [],
      "name": "viewReputationTokenBalance",
      "outputs": [
        {
          "internalType": "uint256",
          "name": "",
          "type": "uint256"
        }
      ],
      "stateMutability": "nonpayable",
      "type": "function"
    },
    {
      "inputs": [
        {
          "internalType": "uint256",
          "name": "donatedAmt",
          "type": "uint256"
        },
        {
          "internalType": "address",
          "name": "admin",
          "type": "address"
        },
        {
          "internalType": "uint256",
          "name": "index",
          "type": "uint256"
        }
      ],
      "name": "donatedAmount",
      "outputs": [],
      "stateMutability": "nonpayable",
      "type": "function"
    },
    {
      "inputs": [
        {
          "internalType": "address",
          "name": "admin",
          "type": "address"
        },
        {
          "internalType": "uint256",
          "name": "index",
          "type": "uint256"
        }
      ],
      "name": "viewDonatedAmount",
      "outputs": [
        {
          "internalType": "uint256",
          "name": "value",
          "type": "uint256"
        }
      ],
      "stateMutability": "view",
      "type": "function",
      "constant": true
    },
    {
      "inputs": [
        {
          "internalType": "address",
          "name": "admin",
          "type": "address"
        },
        {
          "internalType": "uint256",
          "name": "index",
          "type": "uint256"
        },
        {
          "internalType": "uint256",
          "name": "transactionIndex",
          "type": "uint256"
        }
      ],
      "name": "makeTransactionValid",
      "outputs": [],
      "stateMutability": "nonpayable",
      "type": "function"
    },
    {
      "inputs": [
        {
          "internalType": "address",
          "name": "admin",
          "type": "address"
        },
        {
          "internalType": "uint256",
          "name": "index",
          "type": "uint256"
        }
      ],
      "name": "viewAllTransactionsForProject",
      "outputs": [],
      "stateMutability": "nonpayable",
      "type": "function"
    },
    {
      "inputs": [
        {
          "internalType": "address",
          "name": "admin",
          "type": "address"
        },
        {
          "internalType": "uint256",
          "name": "index",
          "type": "uint256"
        },
        {
          "internalType": "uint256",
          "name": "tindex",
          "type": "uint256"
        }
      ],
      "name": "viewSingleTransaction",
      "outputs": [
        {
          "internalType": "string",
          "name": "purpose",
          "type": "string"
        },
        {
          "internalType": "uint256",
          "name": "value",
          "type": "uint256"
        },
        {
          "internalType": "string",
          "name": "proofLink",
          "type": "string"
        },
        {
          "internalType": "bool",
          "name": "verified",
          "type": "bool"
        }
      ],
      "stateMutability": "nonpayable",
      "type": "function"
    }
  ],
  "bytecode": "0x60806040526001601055600060115560006014553480156200002057600080fd5b50604051620039a4380380620039a4833981016040819052620000439162000502565b600080546001600160a01b0319166001600160a01b038316179055604080518082018252600581526470726f6a3160d81b602080830191909152825180840190935260128352713337b9103a32b9ba34b733903090383937b560711b90830152620000b1916101f46200011e565b6200011760405180604001604052806005815260200164383937b51960d91b8152506040518060400160405280601881526020017f666f722074657374696e6720616e6f746865722070726f6a000000000000000081525060fa6200011e60201b60201c565b5062000532565b33600081815260156020908152604080832054815161012081018352888152808401889052808301879052606081018690526080810185905260a0810187905260c0810185905260e08101859052948452600e83529220546101008401528251805192939260019262000196928492910190620003e3565b506020828101518051620001b19260018501920190620003e3565b5060408281015160028381019190915560608401516003840180546001600160a01b0319166001600160a01b039092169190911790556080840151600484015560a0840151600584015560c0840151600784015560e0840151600884015561010093840151600990930192909255336000908152600d60209081529181208054600181810183559183529290912081549194600a90930201926200026692849286928184161590920260001901160462000468565b50600182018160010190805460018160011615610100020316600290046200029092919062000468565b506002828101549082015560038083015490820180546001600160a01b03199081166001600160a01b0393841617909155600480850154908401556005808501549084015560078085015490840155600880850154908401556009938401549390920192909255604080518082018252338082526000818152600e602090815284822054818501908152600b548352600c82528583209451855498169790961696909617835593516001929092019190915582526012909252205460ff16620003bb57336000818152601260205260408120805460ff1916600190811790915560138054808301825592527f66de8ffda797e3de9c05e8fc57b3bf0ec28a930d40b0d285d93c06501cf6a09090910180546001600160a01b0319169092179091556014805490910190555b5050336000908152600e6020526040902080546001908101909155600b805490910190555050565b828054600181600116156101000203166002900490600052602060002090601f016020900481019282601f106200042657805160ff191683800117855562000456565b8280016001018555821562000456579182015b828111156200045657825182559160200191906001019062000439565b5062000464929150620004e2565b5090565b828054600181600116156101000203166002900490600052602060002090601f016020900481019282601f10620004a3578054855562000456565b828001600101855582156200045657600052602060002091601f016020900482015b8281111562000456578254825591600101919060010190620004c5565b620004ff91905b80821115620004645760008155600101620004e9565b90565b60006020828403121562000514578081fd5b81516001600160a01b03811681146200052b578182fd5b9392505050565b61346280620005426000396000f3fe6080604052600436106101445760003560e01c80635ed3fc69116100b65780638c6e63a51161006f5780638c6e63a5146103a5578063bb5290b8146103ba578063be6ee9cb146103dc578063c7dca34714610404578063e0b215c814610434578063f30b2101146104545761014b565b80635ed3fc69146102e05780636608f47c146103005780636ec8a0af146103205780637ecdd3c51461035057806381b2d07b14610370578063826c6bfa146103855761014b565b806330cad5e21161010857806330cad5e214610214578063316bde01146102295780633603d35e1461025e5780633664f5561461027e578063369c681b146102ab57806355f44f28146102cb5761014b565b80630b1434ba1461015a5780631ce05c451461017c57806323c55448146101b25780632b7832b3146101d25780632d7cc355146101f45761014b565b3661014b57005b34801561015757600080fd5b50005b34801561016657600080fd5b5061017a610175366004612e8a565b610482565b005b34801561018857600080fd5b5061019c610197366004612fab565b61099e565b6040516101a99190613170565b60405180910390f35b3480156101be57600080fd5b5061017a6101cd366004612f42565b6109c5565b3480156101de57600080fd5b506101e7610c81565b6040516101a99190613423565b34801561020057600080fd5b5061017a61020f366004612ee7565b610c87565b34801561022057600080fd5b506101e7611071565b34801561023557600080fd5b50610249610244366004612e8a565b611077565b6040516101a9999897969594939291906132fa565b34801561026a57600080fd5b506101e7610279366004612e8a565b611309565b34801561028a57600080fd5b5061029e610299366004612fdb565b611348565b6040516101a991906132a8565b3480156102b757600080fd5b5061019c6102c6366004613010565b6113ec565b3480156102d757600080fd5b506101e7611906565b3480156102ec57600080fd5b5061017a6102fb366004612fdb565b611a10565b34801561030c57600080fd5b506101e761031b366004612e6f565b611b5e565b34801561032c57600080fd5b5061034061033b366004612eb4565b611b70565b6040516101a994939291906133be565b34801561035c57600080fd5b5061024961036b366004612e8a565b611efc565b34801561037c57600080fd5b506101e761208c565b34801561039157600080fd5b5061017a6103a0366004612eb4565b612090565b3480156103b157600080fd5b506101e76120ef565b3480156103c657600080fd5b506103cf6120f5565b6040516101a9919061319d565b3480156103e857600080fd5b506103f1612157565b6040516101a99796959493929190613363565b34801561041057600080fd5b5061042461041f366004612e6f565b61220a565b6040516101a994939291906131b0565b34801561044057600080fd5b506101e761044f366004612e6f565b61264b565b34801561046057600080fd5b5061047461046f366004612fab565b612666565b6040516101a9929190613184565b6001600160a01b0382166000908152600d602052604081208054839081106104a657fe5b90600052602060002090600a02016007015490506060816001600160401b03811180156104d257600080fd5b5060405190808252806020026020018201604052801561050657816020015b60608152602001906001900390816104f15790505b5090506060826001600160401b038111801561052157600080fd5b5060405190808252806020026020018201604052801561054b578160200160208202803683370190505b5090506060836001600160401b038111801561056657600080fd5b5060405190808252806020026020018201604052801561059a57816020015b60608152602001906001900390816105855790505b5090506060846001600160401b03811180156105b557600080fd5b506040519080825280602002602001820160405280156105df578160200160208202803683370190505b5090506060856001600160401b03811180156105fa57600080fd5b50604051908082528060200260200182016040528015610624578160200160208202803683370190505b50905060005b86811015610952576001600160a01b0389166000908152600d6020526040902080548990811061065657fe5b60009182526020808320848452600a9283020160060181526040928390209091018054835160026001831615610100026000190190921691909104601f81018490048402820184019094528381529290918301828280156106f85780601f106106cd576101008083540402835291602001916106f8565b820191906000526020600020905b8154815290600101906020018083116106db57829003601f168201915b505050505086828151811061070957fe5b6020026020010181905250600d60008a6001600160a01b03166001600160a01b03168152602001908152602001600020888154811061074457fe5b90600052602060002090600a02016006016000828152602001908152602001600020600b015485828151811061077657fe5b602002602001018181525050600d60008a6001600160a01b03166001600160a01b0316815260200190815260200160002088815481106107b257fe5b600091825260208083208484526006600a90930201919091018152604091829020600c0180548351601f6002600019610100600186161502019093169290920491820184900484028101840190945280845290918301828280156108575780601f1061082c57610100808354040283529160200191610857565b820191906000526020600020905b81548152906001019060200180831161083a57829003601f168201915b505050505084828151811061086857fe5b6020026020010181905250600d60008a6001600160a01b03166001600160a01b0316815260200190815260200160002088815481106108a357fe5b600091825260208083208484526006600a9093020191909101905260409020600f0154835160ff909116908490839081106108da57fe5b9115156020928302919091018201526001600160a01b038a166000908152600d9091526040902080548990811061090d57fe5b90600052602060002090600a020160060160008281526020019081526020016000206010015482828151811061093f57fe5b602090810291909101015260010161062a565b507fd013b5252a62ea96313f2dbe2629990b898285e8e551de9e3a86f26708c0bd018585858b868660405161098c96959493929190613207565b60405180910390a15050505050505050565b601381815481106109ab57fe5b6000918252602090912001546001600160a01b0316905081565b33600081815260156020908152604080832054815161012081018352888152808401889052808301879052606081018690526080810185905260a0810187905260c0810185905260e08101859052948452600e835292205461010084015282518051929392600192610a3b928492910190612bdc565b506020828101518051610a549260018501920190612bdc565b5060408281015160028381019190915560608401516003840180546001600160a01b0319166001600160a01b039092169190911790556080840151600484015560a0840151600584015560c0840151600784015560e0840151600884015561010093840151600990930192909255336000908152600d60209081529181208054600181810183559183529290912081549194600a9093020192610b07928492869281841615909202600019011604612c5a565b5060018201816001019080546001816001161561010002031660029004610b2f929190612c5a565b506002828101549082015560038083015490820180546001600160a01b03199081166001600160a01b0393841617909155600480850154908401556005808501549084015560078085015490840155600880850154908401556009938401549390920192909255604080518082018252338082526000818152600e602090815284822054818501908152600b548352600c82528583209451855498169790961696909617835593516001929092019190915582526012909252205460ff16610c5957336000818152601260205260408120805460ff1916600190811790915560138054808301825592527f66de8ffda797e3de9c05e8fc57b3bf0ec28a930d40b0d285d93c06501cf6a09090910180546001600160a01b0319169092179091556014805490910190555b5050336000908152600e6020526040902080546001908101909155600b805490910190555050565b60145481565b6001600160a01b0383163314610cb85760405162461bcd60e51b8152600401610caf906133fd565b60405180910390fd5b6001600160a01b0383166000908152600d60205260409020805485919084908110610cdf57fe5b90600052602060002090600a02016006016000838152602001908152602001600020600c019080519060200190610d17929190612bdc565b506001600160a01b0383166000908152600d60205260409020805461106b919084908110610d4157fe5b60009182526020808320858452600a929092029091016006018152604091829020825181546002610100600183161581026000190190921604601f81018590049094028201610240908101909552610220820184815291949293859391840192859284928491870182828015610df85780601f10610dcd57610100808354040283529160200191610df8565b820191906000526020600020905b815481529060010190602001808311610ddb57829003601f168201915b50505050508152602001600182018054600181600116156101000203166002900480601f016020809104026020016040519081016040528092919081815260200182805460018160011615610100020316600290048015610e9a5780601f10610e6f57610100808354040283529160200191610e9a565b820191906000526020600020905b815481529060010190602001808311610e7d57829003601f168201915b505050918352505060028281015460208084019190915260038401546001600160a01b03166040808501919091526004850154606085015260058501546080850152600785015460a0850152600885015460c085015260099094015460e090930192909252928452600a8501805483516101006001831615026000190190911694909404601f8101839004830285018301909352828452938101939190830182828015610f885780601f10610f5d57610100808354040283529160200191610f88565b820191906000526020600020905b815481529060010190602001808311610f6b57829003601f168201915b5050509183525050600b820154602080830191909152600c8301805460408051601f600260001961010060018716150201909416939093049283018590048502810185018252828152940193928301828280156110265780601f10610ffb57610100808354040283529160200191611026565b820191906000526020600020905b81548152906001019060200180831161100957829003601f168201915b5050509183525050600d8201546001600160a01b03166020820152600e8201546040820152600f82015460ff161515606082015260109091015460809091015261268b565b50505050565b600b5481565b606080600080600080600080600061108d612ccf565b6001600160a01b038c166000908152600d6020526040902080548c9081106110b157fe5b600091825260209182902060408051600a93909302909101805460026001821615610100026000190190911604601f810185900490940283016101409081019092526101208301848152929390928492909184918401828280156111565780601f1061112b57610100808354040283529160200191611156565b820191906000526020600020905b81548152906001019060200180831161113957829003601f168201915b50505050508152602001600182018054600181600116156101000203166002900480601f0160208091040260200160405190810160405280929190818152602001828054600181600116156101000203166002900480156111f85780601f106111cd576101008083540402835291602001916111f8565b820191906000526020600020905b8154815290600101906020018083116111db57829003601f168201915b50505050508152602001600282015481526020016003820160009054906101000a90046001600160a01b03166001600160a01b03166001600160a01b031681526020016004820154815260200160058201548152602001600782015481526020016008820154815260200160098201548152505090507fa9aaded09b889343b11b9495f2e358722884a49c01915cb7a5a2971a95451ed381600001518260200151836040015184606001516040516112b394939291906132b3565b60405180910390a1806000015181602001518260400151836060015184608001518560a001518660c001518760e00151886101000151995099509950995099509950995099509950509295985092959850929598565b6001600160a01b0382166000908152600d6020526040812080548390811061132d57fe5b90600052602060002090600a02016004015490505b92915050565b6001600160a01b0382166000908152600d6020526040812080548291908490811061136f57fe5b90600052602060002090600a02016004015490506000600d6000866001600160a01b03166001600160a01b0316815260200190815260200160002084815481106113b557fe5b90600052602060002090600a02016002015490508086830110156113de576001925050506113e5565b6000925050505b9392505050565b336000908152600d6020526040812080548291908590811061140a57fe5b6000918252602082206007600a909202010154604051909250339187156108fc02918891818181858888f1935050505015801561144b573d6000803e3d6000fd5b50336000908152600d602052604081208054670de0b6b3a7640000909704968690811061147457fe5b90600052602060002090600a0201600701549050611490612d24565b6040805161010081018252336000908152600d602052919091208054829190899081106114b957fe5b600091825260209182902060408051600a93909302909101805460026001821615610100026000190190911604601f8101859004909402830161014090810190925261012083018481529293909284929091849184018282801561155e5780601f106115335761010080835404028352916020019161155e565b820191906000526020600020905b81548152906001019060200180831161154157829003601f168201915b50505050508152602001600182018054600181600116156101000203166002900480601f0160208091040260200160405190810160405280929190818152602001828054600181600116156101000203166002900480156116005780601f106115d557610100808354040283529160200191611600565b820191906000526020600020905b8154815290600101906020018083116115e357829003601f168201915b50505050508152602001600282015481526020016003820160009054906101000a90046001600160a01b03166001600160a01b03166001600160a01b03168152602001600482015481526020016005820154815260200160078201548152602001600882015481526020016009820154815250508152602001868152602001888152602001604051806020016040528060008152508152602001336001600160a01b0316815260200187815260200160001515815260200183815250905080600d6000336001600160a01b03166001600160a01b0316815260200190815260200160002087815481106116ef57fe5b600091825260208083208684526006600a909302019190910181526040909120825180518051929391928492611729928492910190612bdc565b5060208281015180516117429260018501920190612bdc565b506040820151600282015560608201516003820180546001600160a01b0319166001600160a01b039092169190911790556080820151600482015560a0820151600582015560c0820151600782015560e082015160088201556101009091015160099091015560208281015180516117c092600a8501920190612bdc565b506040820151600b820155606082015180516117e691600c840191602090910190612bdc565b506080820151600d82810180546001600160a01b0319166001600160a01b039093169290921790915560a0830151600e83015560c0830151600f8301805460ff191691151591909117905560e0909201516010909101553360009081526020919091526040902080548790811061185957fe5b600091825260208083206007600a9093020191909101805460019081019091553383526015825260408084208054909201909155600d90915290208054889190889081106118a357fe5b90600052602060002090600a02016008015401600d6000336001600160a01b03166001600160a01b0316815260200190815260200160002087815481106118e657fe5b600091825260209091206008600a90920201015550339695505050505050565b600080546040516370a0823160e01b81526001600160a01b03909116906370a0823190611937903390600401613170565b60206040518083038186803b15801561194f57600080fd5b505afa158015611963573d6000803e3d6000fd5b505050506040513d601f19601f820116820180604052508101906119879190612fc3565b6016556000546040516370a0823160e01b81526001600160a01b03909116906370a08231906119ba903390600401613170565b60206040518083038186803b1580156119d257600080fd5b505afa1580156119e6573d6000803e3d6000fd5b505050506040513d601f19601f82011682018060405250810190611a0a9190612fc3565b90505b90565b6001600160a01b0382166000908152600d60205260409020805484919083908110611a3757fe5b90600052602060002090600a02016004015401600d6000846001600160a01b03166001600160a01b031681526020019081526020016000208281548110611a7a57fe5b90600052602060002090600a020160040181905550600d6000836001600160a01b03166001600160a01b031681526020019081526020016000208181548110611abf57fe5b90600052602060002090600a020160040154600d6000846001600160a01b03166001600160a01b031681526020019081526020016000208281548110611b0157fe5b90600052602060002090600a02016002015403600d6000846001600160a01b03166001600160a01b031681526020019081526020016000208281548110611b4457fe5b90600052602060002090600a020160050181905550505050565b600e6020526000908152604090205481565b6060600060606000611b80612d24565b6001600160a01b0388166000908152600d60205260409020805488908110611ba457fe5b60009182526020808320898452600a929092029091016006018152604091829020825181546002610100600183161581026000190190921604601f81018590049094028201610240908101909552610220820184815291949293859391840192859284928491870182828015611c5b5780601f10611c3057610100808354040283529160200191611c5b565b820191906000526020600020905b815481529060010190602001808311611c3e57829003601f168201915b50505050508152602001600182018054600181600116156101000203166002900480601f016020809104026020016040519081016040528092919081815260200182805460018160011615610100020316600290048015611cfd5780601f10611cd257610100808354040283529160200191611cfd565b820191906000526020600020905b815481529060010190602001808311611ce057829003601f168201915b505050918352505060028281015460208084019190915260038401546001600160a01b03166040808501919091526004850154606085015260058501546080850152600785015460a0850152600885015460c085015260099094015460e090930192909252928452600a8501805483516101006001831615026000190190911694909404601f8101839004830285018301909352828452938101939190830182828015611deb5780601f10611dc057610100808354040283529160200191611deb565b820191906000526020600020905b815481529060010190602001808311611dce57829003601f168201915b5050509183525050600b820154602080830191909152600c8301805460408051601f60026000196101006001871615020190941693909304928301859004850281018501825282815294019392830182828015611e895780601f10611e5e57610100808354040283529160200191611e89565b820191906000526020600020905b815481529060010190602001808311611e6c57829003601f168201915b5050509183525050600d8201546001600160a01b0316602080830191909152600e830154604080840191909152600f84015460ff161515606080850191909152601090940154608090930192909252830151908301519183015160c090930151909b919a50919850909650945050505050565b600d6020528160005260406000208181548110611f1557fe5b6000918252602091829020600a919091020180546040805160026001841615610100026000190190931692909204601f810185900485028301850190915280825291945092508391830182828015611fae5780601f10611f8357610100808354040283529160200191611fae565b820191906000526020600020905b815481529060010190602001808311611f9157829003601f168201915b505050505090806001018054600181600116156101000203166002900480601f01602080910402602001604051908101604052809291908181526020018280546001816001161561010002031660029004801561204c5780601f106120215761010080835404028352916020019161204c565b820191906000526020600020905b81548152906001019060200180831161202f57829003601f168201915b50505050600283015460038401546004850154600586015460078701546008880154600990980154969794966001600160a01b0390941695509193909289565b4790565b6001600160a01b0383166000908152600d60205260409020805460019190849081106120b857fe5b60009182526020808320948352600a919091029093016006019092526040909120600f01805460ff19169115159190911790555050565b60165481565b6060601380548060200260200160405190810160405280929190818152602001828054801561214d57602002820191906000526020600020905b81546001600160a01b0316815260019091019060200180831161212f575b5050505050905090565b60606000606060008060008061216b612d24565b6121736127d6565b60208101516040808301516060840151608085015160a086015160c087015160e088015195519798507f139d7bbbfb02dbf471ab19634ba2409034897f9eedb10e730a57b6ed39d0791e976121c9979690613363565b60405180910390a1602081015160408201516060830151608084015160a085015160c086015160e090960151949d939c50919a509850965091945092509050565b6001600160a01b0381166000908152600d602052604090205460609081908190819081816001600160401b038111801561224357600080fd5b5060405190808252806020026020018201604052801561227757816020015b60608152602001906001900390816122625790505b5090506060826001600160401b038111801561229257600080fd5b506040519080825280602002602001820160405280156122c657816020015b60608152602001906001900390816122b15790505b5090506060836001600160401b03811180156122e157600080fd5b5060405190808252806020026020018201604052801561230b578160200160208202803683370190505b5090506060846001600160401b038111801561232657600080fd5b50604051908082528060200260200182016040528015612350578160200160208202803683370190505b50905060005b858110156125fd576001600160a01b038b166000908152600d6020526040902080548290811061238257fe5b6000918252602091829020600a90910201805460408051601f60026000196101006001871615020190941693909304928301859004850281018501909152818152928301828280156124155780601f106123ea57610100808354040283529160200191612415565b820191906000526020600020905b8154815290600101906020018083116123f857829003601f168201915b505050505085828151811061242657fe5b6020026020010181905250600d60008c6001600160a01b03166001600160a01b03168152602001908152602001600020818154811061246157fe5b90600052602060002090600a02016001018054600181600116156101000203166002900480601f0160208091040260200160405190810160405280929190818152602001828054600181600116156101000203166002900480156125065780601f106124db57610100808354040283529160200191612506565b820191906000526020600020905b8154815290600101906020018083116124e957829003601f168201915b505050505084828151811061251757fe5b6020026020010181905250600d60008c6001600160a01b03166001600160a01b03168152602001908152602001600020818154811061255257fe5b90600052602060002090600a02016002015483828151811061257057fe5b602002602001018181525050600d60008c6001600160a01b03166001600160a01b0316815260200190815260200160002081815481106125ac57fe5b90600052602060002090600a020160030160009054906101000a90046001600160a01b03168282815181106125dd57fe5b6001600160a01b0390921660209283029190910190910152600101612356565b507f44f513b6ae98a0113d0bf02a191f443e7a213a12360f5127fd9ffb42145bbb538484848460405161263394939291906131b0565b60405180910390a19299919850965090945092505050565b6001600160a01b03166000908152600e602052604090205490565b600c60205260009081526040902080546001909101546001600160a01b039091169082565b60118054600101908190556000908152600f60209081526040909120825180518051859484926126c19284929190910190612bdc565b5060208281015180516126da9260018501920190612bdc565b506040820151600282015560608201516003820180546001600160a01b0319166001600160a01b039092169190911790556080820151600482015560a0820151600582015560c0820151600782015560e0820151600882015561010090910151600990910155602082810151805161275892600a8501920190612bdc565b506040820151600b8201556060820151805161277e91600c840191602090910190612bdc565b506080820151600d820180546001600160a01b0319166001600160a01b0390921691909117905560a0820151600e82015560c0820151600f8201805460ff191691151591909117905560e09091015160109091015550565b6127de612d24565b60105460115410156127ef57600080fd5b6010546000908152600f6020908152604091829020825181546002610100600183161581026000190190921604601f8101859004909402820161024090810190955261022082018481529194929385939184019285928492849187018282801561289a5780601f1061286f5761010080835404028352916020019161289a565b820191906000526020600020905b81548152906001019060200180831161287d57829003601f168201915b50505050508152602001600182018054600181600116156101000203166002900480601f01602080910402602001604051908101604052809291908181526020018280546001816001161561010002031660029004801561293c5780601f106129115761010080835404028352916020019161293c565b820191906000526020600020905b81548152906001019060200180831161291f57829003601f168201915b505050918352505060028281015460208084019190915260038401546001600160a01b03166040808501919091526004850154606085015260058501546080850152600785015460a0850152600885015460c085015260099094015460e090930192909252928452600a8501805483516101006001831615026000190190911694909404601f8101839004830285018301909352828452938101939190830182828015612a2a5780601f106129ff57610100808354040283529160200191612a2a565b820191906000526020600020905b815481529060010190602001808311612a0d57829003601f168201915b5050509183525050600b820154602080830191909152600c8301805460408051601f60026000196101006001871615020190941693909304928301859004850281018501825282815294019392830182828015612ac85780601f10612a9d57610100808354040283529160200191612ac8565b820191906000526020600020905b815481529060010190602001808311612aab57829003601f168201915b5050509183525050600d8201546001600160a01b0316602080830191909152600e830154604080840191909152600f8085015460ff1615156060850152601094850154608090940193909352925460009081529190529081209192508181612b308282612d7a565b612b3e600183016000612d7a565b506000600282018190556003820180546001600160a01b0319169055600482018190556005820181905560078201819055600882018190556009909101819055612b8c90600a840190612d7a565b600b820160009055600c82016000612ba49190612d7a565b50600d810180546001600160a01b03191690556000600e8201819055600f8201805460ff191690556010918201558054600101905590565b828054600181600116156101000203166002900490600052602060002090601f016020900481019282601f10612c1d57805160ff1916838001178555612c4a565b82800160010185558215612c4a579182015b82811115612c4a578251825591602001919060010190612c2f565b50612c56929150612dc1565b5090565b828054600181600116156101000203166002900490600052602060002090601f016020900481019282601f10612c935780548555612c4a565b82800160010185558215612c4a57600052602060002091601f016020900482015b82811115612c4a578254825591600101919060010190612cb4565b60405180610120016040528060608152602001606081526020016000815260200160006001600160a01b0316815260200160008152602001600081526020016000815260200160008152602001600081525090565b604051806101000160405280612d38612ccf565b815260200160608152602001600081526020016060815260200160006001600160a01b0316815260200160008152602001600015158152602001600081525090565b50805460018160011615610100020316600290046000825580601f10612da05750612dbe565b601f016020900490600052602060002090810190612dbe9190612dc1565b50565b611a0d91905b80821115612c565760008155600101612dc7565b80356001600160a01b038116811461134257600080fd5b600082601f830112612e02578081fd5b81356001600160401b0380821115612e18578283fd5b604051601f8301601f191681016020018281118282101715612e38578485fd5b604052828152925082848301602001861015612e5357600080fd5b8260208601602083013760006020848301015250505092915050565b600060208284031215612e80578081fd5b6113e58383612ddb565b60008060408385031215612e9c578081fd5b612ea68484612ddb565b946020939093013593505050565b600080600060608486031215612ec8578081fd5b612ed28585612ddb565b95602085013595506040909401359392505050565b60008060008060808587031215612efc578081fd5b84356001600160401b03811115612f11578182fd5b612f1d87828801612df2565b945050612f2d8660208701612ddb565b93969395505050506040820135916060013590565b600080600060608486031215612f56578283fd5b83356001600160401b0380821115612f6c578485fd5b612f7887838801612df2565b94506020860135915080821115612f8d578384fd5b50612f9a86828701612df2565b925050604084013590509250925092565b600060208284031215612fbc578081fd5b5035919050565b600060208284031215612fd4578081fd5b5051919050565b600080600060608486031215612fef578283fd5b833592506130008560208601612ddb565b9150604084013590509250925092565b600080600060608486031215613024578283fd5b833592506020840135915060408401356001600160401b03811115613047578182fd5b61305386828701612df2565b9150509250925092565b6000815180845260208085019450808401835b838110156130955781516001600160a01b031687529582019590820190600101613070565b509495945050505050565b60008282518085526020808601955080818302840101818601855b848110156130e957601f198684030189526130d7838351613125565b988401989250908301906001016130bb565b5090979650505050505050565b6000815180845260208085019450808401835b8381101561309557815187529582019590820190600101613109565b60008151808452815b8181101561314a5760208185018101518683018201520161312e565b8181111561315b5782602083870101525b50601f01601f19169290920160200192915050565b6001600160a01b0391909116815260200190565b6001600160a01b03929092168252602082015260400190565b6000602082526113e5602083018461305d565b6000608082526131c360808301876130a0565b82810360208401526131d581876130a0565b83810360408501526131e781876130f6565b91505082810360608401526131fc818561305d565b979650505050505050565b600060c0825261321a60c08301896130a0565b60208382038185015261322d828a6130f6565b848103604086015261323f818a6130a0565b6001600160a01b03891660608701528581036080870152875180825283890194509083019150845b81811015613285578451151583529383019391830191600101613267565b505084810360a086015261329981876130f6565b9b9a5050505050505050505050565b901515815260200190565b6000608082526132c66080830187613125565b82810360208401526132d88187613125565b604084019590955250506001600160a01b039190911660609091015292915050565b600061012080835261330e8184018d613125565b8381036020850152613320818d613125565b604085019b909b525050506001600160a01b03969096166060870152608086019490945260a085019290925260c084015260e08301526101009091015292915050565b600060e0825261337660e083018a613125565b886020840152828103604084015261338e8189613125565b6001600160a01b039790971660608401525050608081019390935290151560a083015260c0909101529392505050565b6000608082526133d16080830187613125565b85602084015282810360408401526133e98186613125565b915050821515606083015295945050505050565b6020808252600c908201526b24b73b30b634b2102ab9b2b960a11b604082015260600190565b9081526020019056fea26469706673582212208fff8d930d4b407fb69bac4a80ae8f2388dfb0034fc72d1e1ae2fe2754229db264736f6c63430006060033",
  "immutableReferences": {},
  "source": "pragma solidity >=0.4.22 <0.7.0;\r\npragma experimental ABIEncoderV2;\r\nimport './ReputationToken.sol';\r\ncontract ProjectCreator{\r\n    \r\n    struct Project{\r\n        string name;\r\n        string description;\r\n        uint limit;\r\n        address admin;\r\n        uint donatedValue;\r\n        uint balance;\r\n        mapping ( uint=> Transaction) transactions;\r\n        uint transactionSize;\r\n        uint spentAmount;\r\n        uint index;\r\n    }\r\n    struct Transaction{\r\n        Project p;\r\n        string purpose;\r\n        uint value;\r\n        string proofLink;\r\n        address admin;\r\n        uint index;\r\n        bool verified;\r\n        uint transactionIndex;\r\n    }\r\n    struct globalIndexToAdmin{\r\n        address admin;\r\n        uint adminIndex;\r\n    }\r\n    ReputationToken rep;\r\n    Project p;\r\n    uint public pCount;\r\n    mapping (uint => globalIndexToAdmin) public projectMap;\r\n    mapping (address => Project[]) public projects;\r\n    mapping (address => uint) public projectCount;\r\n    mapping(uint256 => Transaction) queue;\r\n    uint256 first = 1;\r\n    uint256 last = 0;\r\n    mapping (address => bool) adminCheck;\r\n    address[] public keyList;\r\n    uint public adminCount = 0;\r\n    mapping (address => uint) overallTransactionCount;\r\n    uint public reputationTokenBalance;\r\n\r\n \r\n    constructor(address _repToken) public{\r\n        rep = ReputationToken(_repToken);\r\n        createProject(\"proj1\",\"for testing a proj\",500);\r\n        createProject(\"proj2\",\"for testing another proj\",250);\r\n    }\r\n    function showBalance()public returns(uint){\r\n        return address(this).balance;\r\n    }\r\n    receive() external payable{\r\n        //Emit transaction\r\n    }\r\n    fallback() external{\r\n        //Emit Cancellation\r\n    }\r\n    function createProject(string memory _name, string memory _desc, uint _value) public{\r\n        //Ratio between transactionCount count and reputation matters here\r\n        //If ratio is too low, no project creation\r\n\r\n        uint transactionCount = overallTransactionCount[msg.sender];\r\n        //uint repTokensBalance = rep.balanceOf(msg.sender);\r\n        //if(repTokensBalance == 0){\r\n        //    repTokensBalance = 1;\r\n        //}\r\n        //uint ratio = transactionCount/repTokensBalance;\r\n        //require(ratio <=2,\"Reputation too low to create a project!\");\r\n        p = Project({name: _name, description: _desc, limit: _value,admin: msg.sender,donatedValue: 0, balance: _value,transactionSize: 0,spentAmount:0,index: projectCount[msg.sender]});\r\n        // p = Project(_name,_desc,_value,msg.sender,0,_value,transactions[-1] = t,0);\r\n        projects[msg.sender].push(p);\r\n        projectMap[pCount] = globalIndexToAdmin({admin: msg.sender, adminIndex: projectCount[msg.sender] });\r\n        //Remove Duplicates\r\n        if(adminCheck[msg.sender] == false){\r\n            adminCheck[msg.sender] = true;\r\n            keyList.push(msg.sender);\r\n            adminCount ++;\r\n        }\r\n        projectCount[msg.sender]++;\r\n        pCount++;\r\n    }\r\n    \r\n    event ViewProject(string  name, string  desc,uint value,address admin);\r\n    function viewProject(address owner,uint index) public returns(string memory name, string memory desc,uint value,address admin, uint donatedValue, uint balance, uint transactionSize, uint spentAmount, uint index1){\r\n        Project memory pr = projects[owner][index];\r\n        emit ViewProject(pr.name,pr.description,pr.limit,pr.admin);\r\n        return (pr.name,pr.description,pr.limit,pr.admin, pr.donatedValue, pr.balance, pr.transactionSize, pr.spentAmount, pr.index );\r\n    }\r\n    function returnProjectCountForCreator(address admin)external view returns (uint count){\r\n        return projectCount[admin];\r\n    }\r\n    event ViewAllProjects(string[]  names, string[]  desc, uint[]  limits,address[]  owners);\r\n    function viewProjects(address admin) public returns (string[] memory names, string[] memory desc, uint[] memory limits,address[] memory owners){\r\n        uint length = projects[admin].length;\r\n        string[] memory n = new string[](length);\r\n        string[] memory d = new string[](length);\r\n        uint[] memory l = new uint[](length);\r\n        address[] memory o = new address[](length);\r\n        for (uint i=0;i<length;i++){\r\n           // Project memory pr =;\r\n            n[i] =  projects[admin][i].name;\r\n            d[i] =  projects[admin][i].description;\r\n            l[i] =  projects[admin][i].limit;\r\n            o[i] =  projects[admin][i].admin;\r\n        }\r\n        emit ViewAllProjects(n,d,l,o);\r\n        return (n,d,l,o);\r\n    }\r\n    function viewAllProjectAdmins() public view returns(address[] memory arrayOfProjectOwners){\r\n        return keyList;\r\n        //Use this list to retreive all the owners and based on that, use the view projects function. \r\n    }\r\n    \r\n    function submitProof(string memory link, address admin, uint index, uint transactionIndex) public{\r\n        //For what transaction?\r\n        //Add transaction to tobeverified transaction\r\n        require(admin == msg.sender,\"Invalid User\");\r\n        projects[admin][index].transactions[transactionIndex].proofLink = link;\r\n        enqueue(projects[admin][index].transactions[transactionIndex]);\r\n    }\r\n    event generateRandomTransaction(string  purpose,uint value, string  proofLink,address admin,uint index,bool verified,uint transactionIndex);\r\n    function requestedRandomTransactionFromMod()public returns( string memory purpose,uint value, string memory proofLink,address admin,uint index,bool verified,uint transactionIndex){\r\n        Transaction memory review = dequeue();\r\n        //Process the emit here and pass it on the moderator function\r\n        emit generateRandomTransaction(review.purpose,review.value,review.proofLink,review.admin,review.index,review.verified,review.transactionIndex);\r\n        return (review.purpose,review.value,review.proofLink,review.admin,review.index,review.verified,review.transactionIndex);\r\n    }\r\n  \r\n    function enqueue(Transaction memory data) internal {\r\n        last += 1;\r\n        queue[last] = data;\r\n    }\r\n    \r\n    function dequeue() internal returns (Transaction memory data) {\r\n        require(last >= first);  // non-empty queue\r\n\r\n        data = queue[first];\r\n\r\n        delete queue[first];\r\n        first += 1;\r\n    }\r\n    function withdraw(uint amount, uint index,string memory purpose) public returns (address admin1){\r\n        //Withdraw based on reputation\r\n        //Based on Ratio of transactionCount and reputation.\r\n        //Require statement not needed because i am using msg.sender\r\n        uint transactionCount = projects[msg.sender][index].transactionSize;\r\n        //uint repTokensBalance = rep.balanceOf(msg.sender);\r\n        //if(repTokensBalance == 0){\r\n        //    repTokensBalance = 1;\r\n        //}\r\n       // uint ratio = transactionCount/repTokensBalance;\r\n        //require(ratio<=2,\"Reputation Balance Low!\");\r\n        //uint remainingValue = projects[msg.sender][index].donatedValue - projects[msg.sender][index].spentAmount;\r\n        //require(remainingValue > amount,\"Invalid Withdrawal Amount\");\r\n        msg.sender.transfer(amount);\r\n        amount = amount / (10**18);\r\n        //projects[msg.sender][index].balance = projects[msg.sender][index].limit - amount;\r\n        //Add transaction details\r\n        \r\n        uint transactionSize = projects[msg.sender][index].transactionSize;\r\n        Transaction memory t = Transaction(projects[msg.sender][index],purpose,amount,\"\",msg.sender,index,false,transactionSize);\r\n        projects[msg.sender][index].transactions[transactionSize] = t;\r\n        projects[msg.sender][index].transactionSize++;\r\n        overallTransactionCount[msg.sender]++;\r\n        projects[msg.sender][index].spentAmount = projects[msg.sender][index].spentAmount + amount;\r\n        return(msg.sender);\r\n    }\r\n    function checkLimit(uint donatedAmt, address admin, uint index) public view returns (bool isLimitReached){\r\n        uint currentDonated = projects[admin][index].donatedValue;\r\n        uint limit = projects[admin][index].limit;\r\n        if(currentDonated+ donatedAmt < limit){\r\n            return true;\r\n        }else{\r\n            return false;\r\n        }\r\n        \r\n    }\r\n    function viewReputationTokenBalance() public returns(uint){\r\n        reputationTokenBalance = rep.balanceOf(msg.sender);\r\n        return rep.balanceOf(msg.sender);\r\n    }\r\n    function donatedAmount(uint donatedAmt, address admin, uint index) public {\r\n        projects[admin][index].donatedValue = projects[admin][index].donatedValue + donatedAmt;\r\n        projects[admin][index].balance = projects[admin][index].limit - projects[admin][index].donatedValue;\r\n    }\r\n    \r\n    function viewDonatedAmount(address admin, uint index)public view returns(uint value){\r\n        return projects[admin][index].donatedValue;\r\n    }\r\n    function makeTransactionValid(address admin, uint index, uint transactionIndex)public{\r\n        projects[admin][index].transactions[transactionIndex].verified = true;\r\n    }\r\n    event ViewAllTransactions(string[]  _purpose, uint[]  _value,string[]  _proofLink,address _admin,bool[] _verified, uint[]  _transactionIndex);\r\n    function viewAllTransactionsForProject(address admin, uint index)public{\r\n        uint length = projects[admin][index].transactionSize;\r\n        string[] memory purpose = new string[](length);\r\n        uint[] memory value = new uint[](length);\r\n        string[] memory proofLink = new string[](length);\r\n        bool[] memory verified = new bool[](length);\r\n        uint[]  memory transactionIndex = new uint[](length);\r\n        for(uint i=0;i<length;i++){\r\n            purpose[i] = projects[admin][index].transactions[i].purpose;\r\n            value[i] = projects[admin][index].transactions[i].value;\r\n            proofLink[i] = projects[admin][index].transactions[i].proofLink;\r\n            verified[i] = projects[admin][index].transactions[i].verified;\r\n            transactionIndex[i] = projects[admin][index].transactions[i].transactionIndex;\r\n        }\r\n        emit ViewAllTransactions(purpose,value,proofLink,admin,verified,transactionIndex);\r\n    }\r\n    function viewSingleTransaction(address admin, uint index, uint tindex) public returns (string memory purpose,uint value, string memory proofLink,bool verified) {\r\n        Transaction memory temp = projects[admin][index].transactions[tindex];\r\n        return(temp.purpose,temp.value, temp.proofLink,temp.verified);\r\n    }\r\n}",
  "sourcePath": "C:\\Users\\Pitch\\Desktop\\NGO\\Emurgo NGO 10 AM 18 Oct\\contracts\\ProjectCreator.sol",
  "compiler": {
    "name": "solc",
    "version": "0.6.6+commit.6c089d02.Emscripten.clang"
  },
  "schemaVersion": "3.3.0",
  "updatedAt": "2020-10-18T16:43:54.099Z",
  "networkType": "ethereum",
  "devdoc": {
    "methods": {}
  },
  "userdoc": {
    "methods": {}
  }
}